{
  "contractName": "Auction",
  "abi": [
    {
      "inputs": [],
      "payable": false,
      "stateMutability": "nonpayable",
      "type": "constructor"
    },
    {
      "constant": true,
      "inputs": [],
      "name": "auctionState",
      "outputs": [
        {
          "internalType": "enum Auction.State",
          "name": "",
          "type": "uint8"
        }
      ],
      "payable": false,
      "stateMutability": "view",
      "type": "function"
    },
    {
      "constant": true,
      "inputs": [
        {
          "internalType": "address",
          "name": "",
          "type": "address"
        }
      ],
      "name": "bids",
      "outputs": [
        {
          "internalType": "uint256",
          "name": "",
          "type": "uint256"
        }
      ],
      "payable": false,
      "stateMutability": "view",
      "type": "function"
    },
    {
      "constant": true,
      "inputs": [],
      "name": "endBlock",
      "outputs": [
        {
          "internalType": "uint256",
          "name": "",
          "type": "uint256"
        }
      ],
      "payable": false,
      "stateMutability": "view",
      "type": "function"
    },
    {
      "constant": true,
      "inputs": [],
      "name": "highestBidder",
      "outputs": [
        {
          "internalType": "address payable",
          "name": "",
          "type": "address"
        }
      ],
      "payable": false,
      "stateMutability": "view",
      "type": "function"
    },
    {
      "constant": true,
      "inputs": [],
      "name": "highestBindingBid",
      "outputs": [
        {
          "internalType": "uint256",
          "name": "",
          "type": "uint256"
        }
      ],
      "payable": false,
      "stateMutability": "view",
      "type": "function"
    },
    {
      "constant": true,
      "inputs": [],
      "name": "ipfsHash",
      "outputs": [
        {
          "internalType": "string",
          "name": "",
          "type": "string"
        }
      ],
      "payable": false,
      "stateMutability": "view",
      "type": "function"
    },
    {
      "constant": true,
      "inputs": [],
      "name": "owner",
      "outputs": [
        {
          "internalType": "address payable",
          "name": "",
          "type": "address"
        }
      ],
      "payable": false,
      "stateMutability": "view",
      "type": "function"
    },
    {
      "constant": true,
      "inputs": [],
      "name": "startBlock",
      "outputs": [
        {
          "internalType": "uint256",
          "name": "",
          "type": "uint256"
        }
      ],
      "payable": false,
      "stateMutability": "view",
      "type": "function"
    },
    {
      "constant": false,
      "inputs": [],
      "name": "placeBid",
      "outputs": [],
      "payable": true,
      "stateMutability": "payable",
      "type": "function"
    },
    {
      "constant": false,
      "inputs": [],
      "name": "cancelAuction",
      "outputs": [],
      "payable": false,
      "stateMutability": "nonpayable",
      "type": "function"
    },
    {
      "constant": false,
      "inputs": [],
      "name": "finalizeAuction",
      "outputs": [],
      "payable": false,
      "stateMutability": "nonpayable",
      "type": "function"
    }
  ],
  "bytecode": "0x608060405234801561001057600080fd5b50336000806101000a81548173ffffffffffffffffffffffffffffffffffffffff021916908373ffffffffffffffffffffffffffffffffffffffff1602179055506001600460006101000a81548160ff0219169083600381111561007057fe5b02179055504360018190555060076001540160028190555060405180602001604052806000815250600390805190602001906100ad9291906100c2565b506702c68af0bb140000600881905550610167565b828054600181600116156101000203166002900490600052602060002090601f016020900481019282601f1061010357805160ff1916838001178555610131565b82800160010185558215610131579182015b82811115610130578251825591602001919060010190610115565b5b50905061013e9190610142565b5090565b61016491905b80821115610160576000816000905550600101610148565b5090565b90565b610b76806101766000396000f3fe60806040526004361061009c5760003560e01c80638fa8b790116100645780638fa8b790146101ec57806391f9015714610203578063c623674f1461025a578063ecfc7ecc146102ea578063f5b56c56146102f4578063f77282ab1461031f5761009c565b8063083c6323146100a157806348cd4cb1146100cc57806362ea82db146100f75780637fb450991461015c5780638da5cb5b14610195575b600080fd5b3480156100ad57600080fd5b506100b6610336565b6040518082815260200191505060405180910390f35b3480156100d857600080fd5b506100e161033c565b6040518082815260200191505060405180910390f35b34801561010357600080fd5b506101466004803603602081101561011a57600080fd5b81019080803573ffffffffffffffffffffffffffffffffffffffff169060200190929190505050610342565b6040518082815260200191505060405180910390f35b34801561016857600080fd5b5061017161035a565b6040518082600381111561018157fe5b60ff16815260200191505060405180910390f35b3480156101a157600080fd5b506101aa61036d565b604051808273ffffffffffffffffffffffffffffffffffffffff1673ffffffffffffffffffffffffffffffffffffffff16815260200191505060405180910390f35b3480156101f857600080fd5b50610201610392565b005b34801561020f57600080fd5b50610218610411565b604051808273ffffffffffffffffffffffffffffffffffffffff1673ffffffffffffffffffffffffffffffffffffffff16815260200191505060405180910390f35b34801561026657600080fd5b5061026f610437565b6040518080602001828103825283818151815260200191508051906020019080838360005b838110156102af578082015181840152602081019050610294565b50505050905090810190601f1680156102dc5780820380516001836020036101000a031916815260200191505b509250505060405180910390f35b6102f26104d5565b005b34801561030057600080fd5b506103096107c8565b6040518082815260200191505060405180910390f35b34801561032b57600080fd5b506103346107ce565b005b60025481565b60015481565b60076020528060005260406000206000915090505481565b600460009054906101000a900460ff1681565b6000809054906101000a900473ffffffffffffffffffffffffffffffffffffffff1681565b6000809054906101000a900473ffffffffffffffffffffffffffffffffffffffff1673ffffffffffffffffffffffffffffffffffffffff163373ffffffffffffffffffffffffffffffffffffffff16146103eb57600080fd5b6003600460006101000a81548160ff0219169083600381111561040a57fe5b0217905550565b600660009054906101000a900473ffffffffffffffffffffffffffffffffffffffff1681565b60038054600181600116156101000203166002900480601f0160208091040260200160405190810160405280929190818152602001828054600181600116156101000203166002900480156104cd5780601f106104a2576101008083540402835291602001916104cd565b820191906000526020600020905b8154815290600101906020018083116104b057829003601f168201915b505050505081565b6000809054906101000a900473ffffffffffffffffffffffffffffffffffffffff1673ffffffffffffffffffffffffffffffffffffffff163373ffffffffffffffffffffffffffffffffffffffff16141561052f57600080fd5b60015443101561053e57600080fd5b60025443111561054d57600080fd5b6001600381111561055a57fe5b600460009054906101000a900460ff16600381111561057557fe5b1461057f57600080fd5b670de0b6b3a764000034101561059457600080fd5b600034600760003373ffffffffffffffffffffffffffffffffffffffff1673ffffffffffffffffffffffffffffffffffffffff1681526020019081526020016000205401905060055481116105e857600080fd5b80600760003373ffffffffffffffffffffffffffffffffffffffff1673ffffffffffffffffffffffffffffffffffffffff1681526020019081526020016000208190555060076000600660009054906101000a900473ffffffffffffffffffffffffffffffffffffffff1673ffffffffffffffffffffffffffffffffffffffff1673ffffffffffffffffffffffffffffffffffffffff16815260200190815260200160002054811161070e57610703600854820160076000600660009054906101000a900473ffffffffffffffffffffffffffffffffffffffff1673ffffffffffffffffffffffffffffffffffffffff1673ffffffffffffffffffffffffffffffffffffffff16815260200190815260200160002054610b26565b6005819055506107c5565b61077d60085460076000600660009054906101000a900473ffffffffffffffffffffffffffffffffffffffff1673ffffffffffffffffffffffffffffffffffffffff1673ffffffffffffffffffffffffffffffffffffffff168152602001908152602001600020540182610b26565b60058190555033600660006101000a81548173ffffffffffffffffffffffffffffffffffffffff021916908373ffffffffffffffffffffffffffffffffffffffff1602179055505b50565b60055481565b6003808111156107da57fe5b600460009054906101000a900460ff1660038111156107f557fe5b1480610802575060025443115b61080b57600080fd5b6000809054906101000a900473ffffffffffffffffffffffffffffffffffffffff1673ffffffffffffffffffffffffffffffffffffffff163373ffffffffffffffffffffffffffffffffffffffff1614806108a557506000600760003373ffffffffffffffffffffffffffffffffffffffff1673ffffffffffffffffffffffffffffffffffffffff16815260200190815260200160002054115b6108ae57600080fd5b6000806003808111156108bd57fe5b600460009054906101000a900460ff1660038111156108d857fe5b141561092857339150600760003373ffffffffffffffffffffffffffffffffffffffff1673ffffffffffffffffffffffffffffffffffffffff168152602001908152602001600020549050610adb565b6000809054906101000a900473ffffffffffffffffffffffffffffffffffffffff1673ffffffffffffffffffffffffffffffffffffffff163373ffffffffffffffffffffffffffffffffffffffff1614156109ab576000809054906101000a900473ffffffffffffffffffffffffffffffffffffffff1691506005549050610ada565b600660009054906101000a900473ffffffffffffffffffffffffffffffffffffffff1673ffffffffffffffffffffffffffffffffffffffff163373ffffffffffffffffffffffffffffffffffffffff161415610a9357600660009054906101000a900473ffffffffffffffffffffffffffffffffffffffff16915060055460076000600660009054906101000a900473ffffffffffffffffffffffffffffffffffffffff1673ffffffffffffffffffffffffffffffffffffffff1673ffffffffffffffffffffffffffffffffffffffff16815260200190815260200160002054039050610ad9565b339150600760003373ffffffffffffffffffffffffffffffffffffffff1673ffffffffffffffffffffffffffffffffffffffff1681526020019081526020016000205490505b5b5b8173ffffffffffffffffffffffffffffffffffffffff166108fc829081150290604051600060405180830381858888f19350505050158015610b21573d6000803e3d6000fd5b505050565b6000818311610b3757829050610b3b565b8190505b9291505056fea265627a7a72315820733238dbdd9a819dad458c1b73297d22fd91401979f4268caea79142b02a854e64736f6c63430005100032",
  "source": "pragma solidity >=0.5.0 <0.9.0;\r\n\r\n/*\r\ncontract AuctionCreator {\r\n\r\n    address[] public auctions;\r\n\r\n    function createAuction() public {\r\n        address newAuction = new Auction(msg.sender);\r\n        auctions.push(newAuction);\r\n    }\r\n\r\n}\r\n*/\r\n\r\n\r\ncontract Auction {\r\n\r\n    address payable public owner;\r\n    uint public startBlock;\r\n    uint public endBlock;\r\n    string public ipfsHash;\r\n\r\n    enum State {Started, Running, Ended, Canceled}\r\n    State public auctionState;\r\n\r\n    uint public highestBindingBid;\r\n    address payable public highestBidder;\r\n\r\n    mapping (address => uint) public bids;\r\n    uint bidIncrement;\r\n\r\n    constructor() public {\r\n        owner = msg.sender;\r\n        auctionState = State.Running;\r\n\r\n        startBlock = block.number;\r\n        endBlock = startBlock + 7; //40320; We want the auction to last a week and a block is mined in average for 15 sec. One week would be appr 40320 blocks.\r\n        ipfsHash = \"\";\r\n        bidIncrement = 200000000000000000; // which is 0.2 ether\r\n    }\r\n\r\n    modifier notOwner() {\r\n        require(msg.sender != owner);\r\n        _;\r\n    }\r\n\r\n    modifier onlyOwner() {\r\n        require(msg.sender == owner);\r\n        _;\r\n    }\r\n\r\n    modifier afterStart() {\r\n        require(block.number >= startBlock);\r\n        _;\r\n    }\r\n\r\n    modifier beforeEnd() {\r\n        require(block.number <= endBlock);\r\n        _;\r\n    }\r\n\r\n    function min(uint a, uint b) pure internal returns(uint) { // The function neither reads from the blockchain nor modifies it. Therefore it is pure.\r\n        if(a <= b) {\r\n            return a;\r\n        }\r\n        else {\r\n            return b;\r\n        }\r\n    }\r\n\r\n    function placeBid() public payable notOwner afterStart beforeEnd {\r\n        require(auctionState == State.Running);\r\n        require(msg.value >= 1 ether);\r\n\r\n        uint currentBid = bids[msg.sender] + msg.value;\r\n        require(currentBid > highestBindingBid);\r\n        bids[msg.sender] = currentBid;\r\n\r\n        if(currentBid <= bids[highestBidder]) {\r\n            highestBindingBid = min((currentBid + bidIncrement), bids[highestBidder]);\r\n        }\r\n        else {\r\n            highestBindingBid = min((bids[highestBidder] + bidIncrement), currentBid);\r\n            highestBidder = msg.sender;\r\n        }\r\n\r\n    }\r\n\r\n    function cancelAuction() public onlyOwner {\r\n        auctionState = State.Canceled;\r\n    }\r\n\r\n    function finalizeAuction() public {\r\n        require(auctionState == State.Canceled || block.number > endBlock);\r\n        require(msg.sender == owner || bids[msg.sender] > 0);\r\n\r\n        address payable recipient;\r\n        uint value;\r\n\r\n        if(auctionState == State.Canceled) {// The auction was canceled\r\n            recipient = msg.sender;\r\n            value = bids[msg.sender];\r\n        }\r\n        else {// The auction ended not canceled\r\n            if(msg.sender == owner) {\r\n                recipient = owner;\r\n                value = highestBindingBid;\r\n            }\r\n            else {\r\n                if(msg.sender == highestBidder) {\r\n                    recipient = highestBidder;\r\n                    value = bids[highestBidder] - highestBindingBid;\r\n                }\r\n                else {// This is neither the owner nor the highest bidder\r\n                    recipient = msg.sender;\r\n                    value = bids[msg.sender];\r\n                }\r\n            }\r\n        }\r\n\r\n        recipient.transfer(value);\r\n\r\n    }\r\n\r\n\r\n\r\n\r\n}\r\n",
  "sourcePath": "C:\\Users\\lenovo 50-70\\Documents\\Learning_Blockchain\\My_Dapps_Smart_Contracts\\My_Own\\Auction\\src\\contracts\\Auction.sol",
  "compiler": {
    "name": "solc",
    "version": "0.5.16+commit.9c3226ce.Emscripten.clang"
  },
  "schemaVersion": "3.2.0",
  "updatedAt": "2022-03-14T11:20:00.974Z",
  "devdoc": {
    "methods": {}
  },
  "userdoc": {
    "methods": {}
  }
}